:020000040800F2
:10000000080400209D010008E30A00088B02000894
:10001000E10A0008090200083D0E00080000000087
:10002000000000000000000000000000190D0008A2
:100030008902000800000000E50A00081B0D000806
:10004000B7010008B7010008B7010008B7010008B0
:10005000B7010008B7010008B7010008B7010008A0
:10006000B7010008B7010008B7010008B701000890
:10007000B7010008B7010008B7010008B701000880
:10008000B7010008B7010008B7010008B701000870
:10009000B7010008B7010008B7010008B701000860
:1000A000B7010008B7010008B7010008B701000850
:1000B000B7010008B7010008B7010008B701000840
:1000C000B7010008B7010008B7010008B701000830
:1000D000B7010008B7010008B7010008B701000820
:1000E000B7010008B7010008B7010008B701000810
:1000F000B7010008B7010008B7010008B701000800
:10010000B7010008B7010008B7010008B7010008EF
:10011000B7010008B7010008B7010008B7010008DF
:10012000B7010008B7010008B7010008B7010008CF
:10013000B7010008B7010008B7010008B7010008BF
:10014000B7010008B7010008B7010008B7010008AF
:10015000B7010008B7010008B7010008B70100089F
:10016000B7010008B7010008B7010008B70100088F
:10017000B7010008B7010008B7010008000000003F
:10018000B7010008B7010008DFF80CD000F02AF82A
:10019000004800475D0E000808040020064880471C
:1001A00006480047FEE7FEE7FEE7FEE7FEE7FEE75C
:1001B000FEE7FEE7FEE7FEE7F90D0008890100080B
:1001C000D2B201E000F8012B491EFBD27047002299
:1001D000F6E710B513460A4604461946FFF7F0FF46
:1001E000204610BD064C074D06E0E06840F00103D4
:1001F00094E8070098471034AC42F6D3FFF7C8FFE5
:10020000200F0008400F0008FEE700001CB500208A
:100210008DF8000019491A4CCDE90001024601236E
:10022000C821204600F084F905E0A069C0F3400031
:1002300008B10120A062A069C0F380100028F4D0AA
:1002400010494FF00070CDE9000101230022C821C0
:10025000204600F06DF906E0A069C0F3800010B1FF
:10026000606A8DF80000A069C0F340100028F3D048
:10027000E06940F02000E0611CBD0000002000802B
:10028000005C0040002400807047FEE7044908B588
:10029000CA6C0243CA64C96C0140009108BD0000E9
:1002A00000100240044908B58A6D02438A65896DD1
:1002B0000140009108BD000000100240F0B54E4C16
:1002C0004D4B077A203400261D1F221F0168002F86
:1002D00073D099B1477A57B3012F30D0022F31D064
:1002E0000126857A55B1444908310B1F012D31D0C3
:1002F000022D39D0032D3BD046F00206416800297B
:1003000078D0437A7BB3012B43D0022B44D046F004
:100310000406837A002B6DD0374928310A1F012B40
:1003200042D0022B4AD0032B4CD0012662E01F683A
:100330008F431F6001682B680B432B60D1E72F6848
:100340008F4301E02F680F432F6001681D680D4344
:100350001D60C6E705680F68AF430F6001681D6840
:100360000D431D60CAE70CE005681F68AF4302E05B
:1003700005681F682F431F6003680D681D430D60EB
:10038000BCE723688B432360416813680B43136009
:10039000BFE713688B4301E013680B4313604168A8
:1003A00022680A432260B4E743680C689C430C60EF
:1003B00040681168014311601CE00CE04368146858
:1003C0009C4302E0436814681C43146040680A6858
:1003D00002430A600EE02F688F432F6001681D689A
:1003E0008D431D60416813688B431360406821682A
:1003F000814321603046F0BD04040140F0B50A6835
:10040000032492FAA2F2B2FA82F30F257BE032467D
:1004100001269E40324075D0D1F804E0066892FA79
:10042000A2F7B7FA87F74FEA470C04FA0CF7BE4376
:1004300092FAA2F7B7FA87F77F000EFA07FE46EAAC
:100440000E0606604E68012E01D0022E15D1D1F89D
:1004500008E0866892FAA2F7B7FA87F74FEA470CE6
:1004600004FA0CF7BE4392FAA2F7B7FA87F77F00B7
:100470000EFA07FE46EA0E068660D1F810C0C6687E
:1004800092FAA2F7B7FA87F77F0004FA07FE92FA0A
:10049000A2F7B7FA87F77F0026EA0E060CFA07FCE8
:1004A00046EA0C06C6604E68022E2BD1FF2A14D8ED
:1004B0004E69076A92FAA2FCBCFA8CFC4FEA8C0CDB
:1004C00005FA0CFC92FAA2F2B2FA82F2920027EA42
:1004D0000C0796403743076214E04F69466A120AD8
:1004E00092FAA2FCBCFA8CFC4FEA8C0C05FA0CFCCC
:1004F00092FAA2F2B2FA82F2920026EA0C06974031
:100500003E4346625B1C0A681646DA407FF47FAFC2
:100510004A68012A01D0022A07D1CB6841683246D5
:10052000914306FB03F2114341600020F0BD00003F
:10053000F0B54468DDE905754FF4806606EA555666
:10054000DFF81CC0114306F6FF3641EA034146EAD4
:100550000C063943B44329430C434460F0BD00000A
:100560000070FF03F0B54468DDE905754FF480665F
:1005700006EA5556DFF81CC0114306F6FF3641EA7D
:10058000034146EA0C063943B44329430C43446013
:10059000F0BD00000070FF0310B5026822F00102F8
:1005A0000260D1E90232046843EA022224F4F854DA
:1005B000144304604A680261026842F0010202606A
:1005C000826822F4004282608B690A6984681A4357
:1005D0006FF30A04144384600A691AB1826842F412
:1005E000004282600A68036823F4401313430360E7
:1005F0004969426822F400420A434260002010BD6B
:100600004FF47A71B0FBF1F14FF0E020491E4161E7
:1006100000218161052101617047000070B500244F
:100620002249234D4FF40046C02803D0B0F5407F47
:100630001ED02FE0D1F8880000F0C00040F4400048
:10064000B0F5400F2BD04038B0F5400024D0402802
:1006500002D080281ED104E000F094F8D0B12C46DE
:1006600018E000F097F8A8B1344613E0044611E012
:10067000D1F8880000F4407040F04070B0F1407F45
:100680000DD00C49401807D0B0F5807FE4D0B0F50C
:10069000007FE6D0204670BD00F050FAE6E700F09B
:1006A0004DFA00F021FA00F02DFADFE700100240C9
:1006B0000024F40000FFFFFC70B500242F49304DEA
:1006C0004FF40046032804D00C281ED0302837D021
:1006D00034E0D1F8880000F0030040F44030B0F579
:1006E000403F0BD06FF44031401804D001283ED079
:1006F000022823D135E000F021FA1EE000F01EFAB6
:1007000000F0F2F900F00CFA17E0D1F8880000F0E0
:100710000C0040F44020B0F5402F08D0001FB0F589
:100720004020E8D0042822D0082807D119E000F0A2
:1007300005FA00F0D9F900F0E5F90446204670BD4D
:10074000D1F8880000F0300040F44010B0F5401FB0
:10075000EDD01038B0F54010CDD0102807D02028AB
:10076000ECD100F017F80028E8D03446E6E700F0B6
:1007700009F80028E2D02C46E0E700000010024013
:100780000024F40002480068C0F380207047000095
:10079000001002400248D0F89000C0F340007047BB
:1007A000001002400248006800F0F00070470000AE
:1007B000001002400248D0F8940000F470607047C6
:1007C0000010024002480068C0F3C00070470000FB
:1007D000001002400248C06800F07000704700003E
:1007E000001002400248C06800F00300704700009B
:1007F000001002400149086070470000000000201E
:1008000070B5044600680D46012610F0010F42D174
:10081000E9686868AA69084329691143084321689F
:10082000254A114008432060A868616821F44051BE
:10083000014361606869A16821F440710143A160CE
:100840001E48844201D1032008E01D48844201D1A2
:100850000C2003E01B48844203D13020FFF72CFF1B
:100860000BE01948844201D1C02004E017488442BB
:1008700011D14FF44070FFF7D1FE60B1296851B13A
:10088000AA690026B2F5004F07D000EB5100B0FB7B
:10089000F1F080B2E060304670BD400000EB5100E6
:1008A000B0FBF1F081B24FF6F07201EA0200C1F341
:1008B00042010843EEE70000F369FFEF0038014012
:1008C0000044004000480040004C00400050004000
:1008D00008B54FF0E0210A690092421C00D0401C8C
:1008E0000A69D20300D5401E0028F9D108BD0000D6
:1008F0002DE9F0418AB00024069407941821684637
:100900000894FFF764FC0420FFF7C0FC8020FFF789
:10091000BDFC0120FFF7BAFC0220FFF7B7FC4FF047
:1009200090482020C8F828002649022003268A681B
:10093000F02393FAA3F3B3FA83F322F0F002984082
:1009400002438A6001274D148DF82070CDE90654CA
:100950008DF8214002208DF8220006A8FFF7AEFC9A
:100960001948C16895FAA5F2B2FA82F2520006FA65
:1009700002F2914395FAA5F2B2FA82F2520004FA19
:1009800002F21143C160016895FAA5F2B2FA82F24F
:100990005200964095FAA5F2B2FA82F25200B143A3
:1009A00004FA02F21143016020200090CDE90174A5
:1009B0000394694640460494FFF720FD0AB0BDE861
:1009C000F08100000C0001400008004810B58EB016
:1009D0001C216846FFF7FBFB182107A8FFF7F7FB70
:1009E0000420FFF753FC03200221CDE90701099001
:1009F00001200A900B9004200C9007A91548FFF7DE
:100A0000FDFC4FF40000FFF74DFC134C606840F014
:100A100000706060E06820F40040E060206820F42E
:100A200000202060206820F40030206000200B4966
:100A30000290CDE90001039004900590069069466C
:100A40002046FFF7A9FDE06840F2FE718843E060B0
:100A50000EB010BD00080048005C0040EC9C9010F7
:100A600030B58DB01C216846FFF7B1FB182107A8EF
:100A7000FFF7ADFB4FF40030FFF714FC0120FFF748
:100A800005FC0C250220CDE9075003200024CDE908
:100A900009040720CDE90B4007A94FF09040FFF76C
:100AA000ADFC4FF4E130CDE900040294CDE90345FB
:100AB00005940694094C69462046FFF7A1FE60683C
:100AC00020F490406060A06820F02A00A0602068B8
:100AD00040F0010020600DB030BD00000044004037
:100AE000FEE770477047000004498968044A01F036
:100AF000F0010909515CC840704700000010024035
:100B0000D80E000804498968044A01F4E06102EB48
:100B100011210978C840704700100240180F0008E2
:100B200004498968044A01F4605102EBD121097833
:100B3000C840704700100240180F0008184810B550
:100B40008068184C10F00C0005D004281AD0082832
:100B50001AD00C281AD0FFF735FED8B1FFF732FEB5
:100B600050B1FFF71FFE09E0FFF71CFE02E000BFD7
:100B7000FFF720FE000A02E0FFF71CFE000954F810
:100B8000200010BD084810BD084810BDBDE8104049
:100B900000F00EB8FFF716FE0028E9D0E4E70000E9
:100BA00000100240E80E00080024F40000127A0051
:100BB00010B5FFF717FE1D4C012803D002282AD0DC
:100BC00003282AD0FFF7FEFD28B1FFF7FBFD48B34D
:100BD000FFF7E8FD06E0FFF7F5FD00B3FFF7E2FDE4
:100BE000000A00E0000954F8204000BFFFF7F2FDC2
:100BF000012101EB1010B4FBF0F20D48C368C0688E
:100C0000C3F306235A4300F0C06001EB506040007C
:100C1000B2FBF0F010BD074CE8E7074CE6E7FFF742
:100C2000C9FDDDE7FFF7C6FDDCE70000E80E0008C0
:100C3000001002400024F40000127A0002460E2147
:100C4000014800F003B80000005C00407CB50E468F
:100C500004461A4900201546CDE900010246012349
:100C6000C8212046FFF77EFC04E0A069C0F34000E5
:100C700000B1A662A069C0F380100028F5D0104929
:100C80004FF00070CDE9000102230022C821204668
:100C9000FFF768FC07E0A069C0F3800018B1606A44
:100CA000C0B225F8020BA069C0F340100028F2D0B2
:100CB000E06940F02000E0617CBD00000020008081
:100CC000002400803EB511A011490068029008037D
:100CD000CDE900010F4C002502232A46C8212046F9
:100CE000FFF726FC02A907E0A069C0F3400018B195
:100CF000485DA0626D1CEDB2A069C0F340100028F1
:100D0000F2D0E06940F02000E0613EBD01BC00008F
:100D100000200080005C00407047704770B531488B
:100D2000016821F0070141F00401016000682E48CC
:100D3000016821F4C06141F4007101602B4C20680E
:100D400040F4807020602068C0F380200028FAD032
:100D5000606820F0F85040F080506060E16840F634
:100D60000220234A11400843E060E06840F08070B0
:100D7000E060206840F0807020602068C0F3406030
:100D80000028FAD0A06840F00300A060A06800F03E
:100D90000C000C28FAD1A06820F0F000A060A06838
:100DA00020F4E060A060A06820F46050A060114DC5
:100DB0002846FFF725FC4FF0E021086940F00400C9
:100DC00008612846FFF716FDD4F8880020F00C00D3
:100DD000C4F8880005488830016821F4403101607A
:100DE00070BD000000200240007000400010024072
:100DF0008C80FFF900B4C4040D48016841F470010F
:100E000001600C48016841F001010160002181602E
:100E10000268094B1A4002608214C260026822F420
:100E20008022026081610249C003803908607047F6
:100E300088ED00E000100240FFFFF6EAFEE702E066
:100E400008C8121F08C1002AFAD170477047002055
:100E500001E001C1121F002AFBD170471CB5002020
:100E6000ADF800001948016E41F001010166006E05
:100E700000F0010001904FF08050FFF713FA144981
:100E800008684FF6FF021040124A40F440701043C9
:100E90000860FFF743FFFFF72BFDFFF7E1FDFFF7CA
:100EA00095FD4FF47A7400BFFFF70CFF6420FFF745
:100EB0000FFDFFF7ABF96420FFF70AFD6846FFF767
:100EC000BDFE2046FFF704FDEEE7000000100240E3
:100ED0000CED00E00000FA0500000000000000003A
:100EE0000102030406070809A0860100400D030063
:100EF000801A060000350C0040420F0080841E005E
:100F000000093D0000127A000024F40000366E0152
:100F10000048E801006CDC0200000000010203044C
:100F2000400F000800000020040000003E0E0008F2
:100F3000440F000804000020040400004E0E0008C6
:040F400000093D0067
:040000050800018965
:00000001FF
